:020000040800F2
:100000005024002005010008BB0900084F08000823
:10001000530800085D0600089D0F0008000000005E
:100020000000000000000000000000006D0D00084E
:1000300061060008000000004B0D0008250F0008B5
:100040001F0100081F0100081F0100081F01000810
:100050001F0100081F0100081F0100081F01000800
:100060001F0100081F0100081F0100081F010008F0
:100070001F0100081F0100081F0100081F010008E0
:100080001F0100081F0100081F0100081F010008D0
:100090001F0100081F0100081F0100081F010008C0
:1000A0001F0100081F0100081F0100081F010008B0
:1000B0001F0100081F0100081F0100081F010008A0
:1000C0001F0100081F0100081F0100081F01000890
:1000D0001F0100081F0100081F0100081F01000880
:1000E0001F0100081F0100081F010008DFF810D0E1
:1000F00000F00EFA00480047C9100008AFF3008076
:10010000502400200648804706480047FEE7FEE7E7
:10011000FEE7FEE7FEE7FEE7FEE7FEE7FEE7FEE7B7
:100120003D0F0008ED000008D2B201E000F8012BFD
:10013000491EFBD270470022F6E710B513460A4667
:1001400004461946FFF7F0FF204610BD2DE9FE4F8B
:10015000804681EA0300C00F0C46009021F0004168
:1001600023F00045B8EB0200A94105D240462146E4
:1001700090461C460B46024623F00040104347D0F1
:10018000270DC7F30A00C3F30A510290401A0190E9
:1001900040286BDAC3F3130040F4801B00989246AA
:1001A00020B10023D2EB030A63EB0B0B01985946F5
:1001B000C0F14002504600F005F906460D46504693
:1001C0005946019A00F01DF910EB08006141002426
:1001D00087EA115284EAE7731A4340D0009A62B367
:1001E000019A012A4FEA075215DC001B61EB02015C
:1001F0004FF0004202EA0752CDE90042001C41F5EF
:10020000801132462B4600F01DF903B0BDE8F08F97
:1002100040462146F9E7001B61EB0201001C41F555
:10022000801300185B412018A2F5001747EB03016B
:1002300040EAD570B6196D4111E06D084FEA3606F7
:1002400045EAC0754FEA0752001B61EB0201001C32
:1002500041F5801149084FEA3000001951413246FA
:100260002B4603B0BDE8F04F00F0DDB80098012246
:1002700040000023D0EB020263EBE07300982146BC
:100280004FEAE074B8EB000061EB0401E9E783F0AA
:1002900000435BE781F0004158E72DE9F04D81EA2A
:1002A000030404F0004B21F0004514464FF0000A0F
:1002B00023F0004150EA050220D054EA01021DD08B
:1002C000C5F30A570246C5F31303C1F31300C1F384
:1002D0000A5640F4801543F48013A7EB0608101B60
:1002E000D64608F2FD3873EB050002D308F1010889
:1002F00001E092185B41B8F1000F03DA00200146DB
:10030000BDE8F08D00204FF48011064684460EE0D3
:10031000171B73EB050705D3121B63EB050306439D
:100320004CEA010C49084FEA300092185B4150EA50
:100330000107EDD152EA030012D082EA040083EAF9
:100340000501084305D0101BAB4106D20122002352
:1003500006E000224FF0004302E06FF0010253106C
:100360001AEB06004CEB085110EB0A0041EB0B01B5
:10037000BDE8F04D00F057B80EB540F233410291A0
:100380000021CDE900110A460B4600F05BF803B0EE
:1003900000BDC1F30A5210B5C1F3130140F2FF339F
:1003A00041F480119A4201DA002010BD40F233433B
:1003B0009A42A2F2334203DC524200F012F810BD1E
:1003C000904010BD202A04DB203A00FA02F1002000
:1003D00070479140C2F1200320FA03F31943904083
:1003E0007047202A04DB203A21FA02F000217047EE
:1003F00021FA02F3D040C2F120029140084319468D
:100400007047202A06DBCB17203A41FA02F043EA74
:10041000E07306E041FA02F3D040C2F120029140BD
:1004200008431946704710B5141E73F1000408DA2A
:10043000401C41F1000192185B411A4301D120F0A8
:10044000010010BD2DE9F04D92469B4611B1B1FA65
:1004500081F202E0B0FA80F220329046FFF7B2FF5C
:1004600004460F4640EA0A0041EA0B0153465A4649
:10047000084313D0114653EA010019D0C8F14002D5
:100480005046FFF7AEFF05460E46504659464246D7
:10049000FFF798FF084305D0012004E020463946C5
:1004A000BDE8F08D0020054346EAE0762C43374353
:1004B0000A986305E40AA0EB08000022FD0A44EA5A
:1004C00047540A3002D500200146E9E7010510191A
:1004D0006941DDE9084500196941BDE8F04DA2E731
:1004E00030B5041E71F1000404DB4FF000444042BB
:1004F00064EB0101141E73F1000405DB1C464FF090
:100500000043524263EB0403994208BF904230BD5E
:10051000064C074D06E0E06840F0010394E8070050
:1005200098471034AC42F6D3FFF7E4FDCC2800081E
:10053000EC28000870B58D1810F8014B14F0030278
:1005400001D110F8012B231106D110F8013B03E073
:1005500010F8016B01F8016B521EF9D1ABB110F824
:10056000012B04F00C048A1A0C2C03D0A2EB841289
:100570009B1C08E010F8014BA2EB0422F8E712F8EC
:10058000014B01F8014B5B1EF9D5A942D4D30020E1
:1005900070BDF0B5837B03B9F0BD002901DB802974
:1005A00000DBF9E7002A01DB402A00DBF4E7438B9C
:1005B000BBB1838BABB1B0F916308B4205DCB0F91F
:1005C0001630448B23448B4200DCE5E7B0F9183049
:1005D000934205DCB0F91830848B2344934200DC4D
:1005E000DAE7837B012B1CD1D51702EB5575ED1093
:1005F00001EBC5154668755D1446D61702EB5676B5
:10060000F610A2EBC6070126BE403543EEB21346F4
:10061000D51702EB5575ED1001EBC51547687E55F2
:100620001AE0D51702EB5575ED1001EBC5154668BC
:10063000755D1446D61702EB5676F610A2EBC60788
:100640000126BE40B5431346D61702EB5676F61088
:1006500001EBC6164768BD5500BF9DE700BFFEE72A
:10066000704700002DE9F04F87B005460F469046D1
:100670009946A87B20B9287B10B907B0BDE8F08F58
:1006800095F80DA0012068734846FFF775FE00221B
:10069000214BCDE90001FFF700FECDE9020100F09A
:1006A0008FFCCDE90401FFF774FE1FFA80FB0024E4
:1006B0002CE0002625E0E21704EB5272D21006FB74
:1006C0000B23119AD25CE31704EB5373DB10A4EBFA
:1006D000C30C802343FA0CF31A4042B108EB060026
:1006E00002B2381901B2284600F0DFFA07E008EB41
:1006F000060002B2381901B22846FFF74AFF701C03
:1007000006B210988642D6DB601C04B24C45D0DBA2
:1007100085F80DA000BFB0E7000020402DE9F041B2
:10072000024600250026002000230024002791F81F
:1007300003C00CF00F0591F803C00CF0100CBCF1D5
:10074000000F03D091F802C04CEA050591F800C0F3
:10075000BCF1000F31D0146800202BE04FF0010CE9
:100760000CFA00F3B1F800C00CEA03069E4220D157
:1007700083004FF00F0C0CFA03F7BC4305FA03FC9F
:100780004CEA040491F803C0BCF1280F06D14FF0E5
:10079000010C0CFA00FCC2F814C00AE091F803C086
:1007A000BCF1480F05D14FF0010C0CFA00FCC2F867
:1007B00010C0401C0828D1D31460B1F800C0BCF1AF
:1007C000FF0F34DD546800202EE000F1080C4FF0DC
:1007D000010808FA0CF3B1F800C00CEA03069E42C7
:1007E00021D183004FF00F0C0CFA03F7BC4305FA3C
:1007F00003FC4CEA040491F803C0BCF1280F05D1B6
:1008000000F1080C08FA0CF8C2F8148091F803C043
:10081000BCF1480F07D100F1080C4FF0010808FAAD
:100820000CF8C2F81080401C0828CED35460BDE8F4
:10083000F0810246002093680B400BB1012000E0DC
:10084000002070470AB1016100E04161704700BFBC
:10085000FEE700BFFEE7000038B5044635492068D2
:10086000884204D10121042000F070FA19E03249D5
:100870002068884204D10121082000F067FA10E0C6
:100880002E492068884204D10121102000F05EFA30
:1008900007E02B492068884203D10121202000F085
:1008A00055FAA1890122A068FFF7CCFFA188012297
:1008B0002068FFF7C7FF1F49A068884204D10121C3
:1008C000042000F043FA19E01B49A068884204D1D3
:1008D0000121082000F03AFA10E01849A068884287
:1008E00004D10121102000F031FA07E01449A0687A
:1008F000884203D10121202000F028FAA088ADF819
:10090000000014208DF8030002208DF802006946D3
:100910002068FFF703FFA089ADF8000014208DF8D0
:10092000030002208DF802006946A068FFF7F6FE7A
:1009300038BD000000080140000C014000100140DB
:10094000001401402DE9F04104460E461746984632
:10095000A1890122A068FFF775FFA1880122206804
:10096000FFF770FFA1890022A068FFF76BFF01204D
:1009700000F094FB06F0FE01204600F0F8F930B1DB
:10098000204600F037FA4FF0FF30BDE8F081002537
:100990000CE0795D204600F0EAF928B1204600F02D
:1009A00029FA6FF00100F0E7681C85B24545F0DBDD
:1009B000204600F01FFA0020E7E7704710B5044614
:1009C0004FF480616068FFF7B6FB10BD2DE9FC4174
:1009D00004460D4616461F46CDE90067B4F91220BD
:1009E000B4F910102B462046FFF73CFEBDE8FC8111
:1009F00038B504460D462868206040F2014000F0FA
:100A000093FB6060606810B96FF0010038BD6068EA
:100A1000401C60604FF480616068FFF78CFB00232E
:100A20001A46AE21204600F004F910B14FF0FF3015
:100A3000ECE78020009001236A46D521204600F093
:100A4000F8F810B14FF0FF30E0E73F2000900123AD
:100A50006A46A821204600F0ECF810B14FF0FF30B4
:100A6000D4E70020009001236A46D321204600F0FD
:100A7000E0F810B14FF0FF30C8E700231A464021DC
:100A8000204600F0D6F810B14FF0FF30BEE714203A
:100A9000009001236A468D21204600F0CAF810B16B
:100AA0004FF0FF30B2E70020009001236A4620217A
:100AB000204600F0BEF810B14FF0FF30A6E700234B
:100AC0001A46A121204600F0B4F810B14FF0FF30D3
:100AD0009CE700231A46C821204600F0AAF810B16E
:100AE0004FF0FF3092E71220009001236A46DA218E
:100AF000204600F09EF810B14FF0FF3086E7CF207F
:100B0000009001236A468121204600F092F810B13E
:100B10004FF0FF307AE7F120009001236A46D92197
:100B2000204600F086F810B14FF0FF306EE720202D
:100B3000009001236A46DB21204600F07AF810B1CC
:100B40004FF0FF3062E700231A462E21204600F0C6
:100B500070F810B14FF0FF3058E700231A46A42177
:100B6000204600F066F810B14FF0FF304EE700234A
:100B70001A46A621204600F05CF810B14FF0FF3075
:100B800044E700231A46AF21204600F052F810B186
:100B90004FF0FF303AE70120607320730020A0730C
:100BA00020826082A082E08320846084A084024846
:100BB000A06000202AE70000A025000838B5044600
:100BC00000208DF8000001236A462021204600F015
:100BD00030F810B14FF0FF3038BD00208DF8000024
:100BE0007F208DF8010002236A462121204600F073
:100BF00020F810B14FF0FF30EEE700208DF8000034
:100C000007208DF8010002236A462221204600F0C9
:100C100010F810B14FF0FF30DEE74FF4806220464D
:100C2000616800F027F810B14FF0FF30D4E70020E2
:100C3000D2E72DE9FC4105460E46174698460020AE
:100C40008DF800008DF80160002405E0395DA01CDE
:100C50000DF80010601CC4B24445F7DBA21C6946C5
:100C600078202B68984718B14FF0FF30BDE8FC8121
:100C70000020FBE72DE9F04105460C46164600270B
:100C800014F8018C402004F8010C701C82B2611E23
:100C900078202B68984700B17F1E04F8018C3846F5
:100CA000BDE8F0810182428270472DE9FC5F044675
:100CB0008A469346207B08B9BDE8FC9F607B00B95B
:100CC000FAE7607B00EBD0714910A0EB410139B12C
:100CD000607B00EBD0714D102E462F46A8460CE0ED
:100CE000607B00EBD0714D102E462F46A846A8F130
:100CF00001001FFA80F8781E87B2A07B0190207B4C
:100D0000A073AAEB08000FFA80F916E0ABEB07001E
:100D100000B2009008E049462046009AFFF739FCEF
:100D20000098401C00B200900BEB06010098814235
:100D3000F1DA09F101000FFA80F90AEB05004845E4
:100D4000E4DA0198A07300BFB6E7704729B1064AFC
:100D500092690243044B9A6104E0034A9269824318
:100D6000014B9A617047000000100240704770B557
:100D700004460E4607251DE0A18800222068FFF7E3
:100D800061FD0123AB4033400BB1012300E00023A0
:100D90001A46A189A068FFF755FD022000F07EF9F0
:100DA000A18801222068FFF74DFD022000F076F9AE
:100DB000681E45B2002DDFDAA18800222068FFF707
:100DC00041FDA1890122A068FFF73CFD022000F04F
:100DD00065F9A18801222068FFF734FD022000F0A8
:100DE0005DF9A189A068FFF724FD012800D170BD3D
:100DF0000020FCE710B50446A18800222068FFF718
:100E000021FD012000F04AF9A1890022A068FFF726
:100E100019FD012000F042F9A18801222068FFF7A6
:100E200011FD012000F03AF9A1890122A068FFF725
:100E300009FD012000F032F910BD10B500F002F8F4
:100E400010BD00000CB500200190009033480068F0
:100E500040F480303149086000BF3048006800F439
:100E6000003000900198401C0190009818B901983A
:100E7000B0F5A06FF1D12948006800F4003010B13E
:100E80000120009001E0002000900098012843D14B
:100E90002348006840F010002149086008460068B7
:100EA00020F0070008600846006840F00200086073
:100EB0001A48406819494860084640684860084632
:100EC000406840F4806048600846406820F47C1028
:100ED00048600846406840F4E810486008460068EA
:100EE00040F08070086000BF0C48006800F000709F
:100EF0000028F9D00948406820F0030007494860FD
:100F00000846406840F00200486000BF034840685F
:100F100000F00C000828F9D10CBD000000100240C0
:100F2000002002400448036840685A1C40F1000059
:100F300001490A60486070470004002010B513485A
:100F4000006840F0010011490860084640681049F7
:100F500008400E494860084600680E4908400B49A1
:100F600008600846006820F4802008600846406851
:100F700020F4FE0048604FF41F008860FFF75DFF1B
:100F80004FF000600449086010BD000000100240EE
:100F90000000FFF8FFFFF6FE08ED00E000BFFEE7EF
:100FA00002E008C8121F08C1002AFAD17047704732
:100FB000002001E001C1121F002AFBD17047000090
:100FC0002DE9F041C1F30A52A2F2FF362F4A304B0D
:100FD0000D460446142E2FDA002E12DAFFF7B6F86B
:100FE00000221346FFF77CFA4CD2002DBCBF4FF015
:100FF0000045002446DB55EA040018BF254D19D1F1
:1010000040E0DFF894C02CFA06F705EA070C5CEA2A
:10101000040C08BFBDE8F081FFF798F800221346E2
:10102000FFF75EFA2ED2002D03DD4FF48010F04062
:101030000544BD43002425E0332EC8BFBDE8F08140
:10104000A6F1140C4FF0FF3727FA0CF73C4208BF0B
:10105000BDE8F081FFF71EF900221346FFF740FAC2
:1010600010D2002D0DDD142E08BF6D1C09D0C6F165
:101070003400012101FA00F02044A04238BF6D1C69
:101080000446BC4329462046BDE8F0819C75008893
:101090003CE4377E0000F03FFFFF0F00002100E03E
:1010A000491CC2008A42FBD87047000070B5044654
:1010B0000D46164633462A4621460248FFF742FCB3
:1010C00070BD00001404002008B5124812490860E1
:1010D000012088800F488860022088810846FFF739
:1010E000BBFB0E48009069460D48FFF781FC10E0FD
:1010F0000B48FFF763FC002211460948FFF7D2FDB9
:10110000084B402280210648FFF760FC0448FFF7A7
:1011100055FDEDE70008014014040020AD10000863
:101120002404002000000020F0B50B30154D20F005
:1011300007010024144A0FE003688B420BD38B4253
:1011400005D95E1A43184768C3E9006700E04368A1
:10115000136002C004E0021D10680028ECD1204694
:10116000002802D1286808B10020F0BD064A0748CF
:101170001060074A121A22F00702C0E90024012079
:101180002860D7E7100400200C040020540400203D
:10119000501400200080808080800080A0A0A0509B
:1011A00050F850F850502078A05008D0C0C81020F7
:1011B000409818E090A040A89068C04080204080EF
:1011C00080804020804020202040805020F8205007
:1011D0002020F82020C04080F8C0C00810204080A7
:1011E000708898A8C8887040C040404040E070882F
:1011F00008102040F8F81020100888701030509027
:10120000F81010F880F008088870304080F0888866
:1012100070F808102040404070888870888870708E
:10122000888878081060C0C000C0C0C0C000C0403E
:101230008010204080402010F800F88040201020CE
:1012400040807088081020002070880868A8A87066
:1012500070888888F88888F08888F08888F0708896
:101260008080808870E09088888890E0F88080F0A6
:101270008080F8F88080E080808070888080988806
:1012800070888888F8888888C04040404040C030D6
:101290001010101090608890A0C0A090888080806E
:1012A000808080F888D8A8888888888888C8A89886
:1012B000888870888888888870F08888F080808026
:1012C00070888888A89068F08888F0A090887880D6
:1012D00080700808F0F82020202020208888888846
:1012E00088887088888888885020888888A8A8D8A6
:1012F000888888502050888888885020202020F8AE
:101300000810204080F8E08080808080E0804020CD
:101310001008E02020202020E0205088F880402085
:1013200070087888788080B0C88888F0708080885D
:1013300070080868988888787088F880703048400D
:10134000E040404078887808308080B0C88888883D
:101350004000C0404040E01000301010906080809D
:1013600090A0C0A090C04040404040E0D0A8A888D5
:1013700088B0C88888887088888870F088F08080F5
:10138000689878080808B0C88080807080700870FD
:101390004040E0404048308888888898688888883D
:1013A00050208888A8A850885020508888887808BD
:1013B00070F8102040F8204040804040208080801D
:1013C000808080808040402040408040A810000005
:1013D0002000000021000000220000002300000087
:1013E0002400000025000000260000002700000067
:1013F00028000000290000002A0000002B00000047
:101400002C0000002D0000002E0000002F00000026
:101410003000000031000000320000003300000006
:1014200034000000350000003600000037000000E6
:1014300038000000390000003A0000003B000000C6
:101440003C0000003D0000003E0000003F000000A6
:101450004000000041000000420000004300000086
:101460004400000045000000460000004700000066
:1014700048000000490000004A0000004B00000046
:101480004C0000004D0000004E0000004F00000026
:101490005000000051000000520000005300000006
:1014A00054000000550000005600000057000000E6
:1014B00058000000590000005A0000005B000000C6
:1014C0005C0000005D0000005E0000005F000000A6
:1014D0006000000061000000620000006300000086
:1014E0006400000065000000660000006700000066
:1014F00068000000690000006A0000006B00000046
:101500006C0000006D0000006E0000006F00000025
:101510007000000071000000720000007300000005
:1015200074000000750000007600000077000000E5
:1015300078000000790000007A0000007B000000C5
:101540007C0000007D0000007E000000C425000833
:1015500020000000E8030000070000000000000079
:10156000000000000000000000000000000000007B
:101570000000000094110008F82500082100000078
:10158000E803000007000000000000000000000069
:101590000000000001000700030001000700000038
:1015A000951100082826000822000000E80300002A
:1015B0000700000000000000000000000000000024
:1015C0000300030002000400030000009C11000857
:1015D0005826000823000000E80300000700000070
:1015E00000000000000000000000000005000700EF
:1015F00001000100070000009F1100088826000874
:1016000024000000E80300000700000000000000C4
:1016100000000000000000000500060001000200BC
:1016200006000000A6110008B826000825000000EA
:10163000E8030000070000000000000000000000B8
:101640000000000005000700010001000700000085
:10165000AC110008E826000826000000E80300009E
:101660000700000000000000000000000000000073
:10167000050007000100010007000000B311000889
:101680001827000827000000E803000007000000FA
:101690000000000000000000000000000200030045
:1016A0000200050003000000BA11000848270008E6
:1016B00028000000E8030000070000000000000010
:1016C000000000000000000003000700020001000D
:1016D00007000000BD110008842700082900000051
:1016E000E803000007000000000000000000000008
:1016F00000000000030007000200010007000000D6
:10170000C4110008B42700082A000000E803000004
:1017100007000000000000000000000000000000C2
:10172000050005000100020005000000CB110008C3
:10173000E42700082B000000E80300000700000079
:10174000000000000000000000000000050005008F
:101750000100020005000000D01100081428000854
:101760002C000000E803000007000000000000005B
:101770000000000000000000020003000200010061
:1017800003000000D5110008442800082D000000C7
:10179000E803000007000000000000000000000057
:1017A000000000000500010001000400010000002D
:1017B000D8110008742800082E000000E80300007B
:1017C0000700000000000000000000000000000012
:1017D000020002000200010002000000D91100080E
:1017E000A42800082F000000E80300000700000004
:1017F00000000000000000000000000005000500DF
:101800000100020005000000DB110008CC250008E3
:1018100030000000E80300000700000000000000A6
:1018200000000000000000000500070001000100AA
:1018300007000000E0110008002600083100000049
:10184000E8030000070000000000000000000000A6
:101850000000000003000700020001000700000074
:10186000E71100083026000832000000E8030000FD
:101870000700000000000000000000000000000061
:10188000050007000100010007000000EE1100083C
:101890006026000833000000E80300000700000095
:1018A000000000000000000000000000050007002C
:1018B0000100010007000000F51100089026000853
:1018C00034000000E80300000700000000000000F2
:1018D00000000000000000000500070001000100FA
:1018E00007000000FC110008C026000835000000B9
:1018F000E8030000070000000000000000000000F6
:1019000000000000050007000100010007000000C2
:1019100003120008F026000836000000E80300006B
:1019200007000000000000000000000000000000B0
:101930000500070001000100070000000A1200086E
:101940002027000837000000E8030000070000001F
:10195000000000000000000000000000050007007B
:1019600001000100070000001112000850270008C4
:1019700038000000E803000007000000000000003D
:101980000000000000000000050007000100010049
:1019900007000000181200088C270008390000001A
:1019A000E803000007000000000000000000000045
:1019B0000000000005000700010001000700000012
:1019C0001F120008BC2700083A000000E8030000CE
:1019D0000700000000000000000000000000000000
:1019E00002000500020002000500000026120008A7
:1019F000EC2700083B000000E8030000070000009F
:101A000000000000000000000000000002000600CE
:101A100002000100060000002B1200081C2800082C
:101A20003C000000E8030000070000000000000088
:101A30000000000000000000040007000200010098
:101A400007000000311200084C2800083D0000008B
:101A5000E803000007000000000000000000000094
:101A60000000000005000300010003000300000067
:101A7000381200087C2800083E000000E80300003F
:101A8000070000000000000000000000000000004F
:101A90000400070001000100070000003B120008DD
:101AA000AC2800083F000000E80300000700000029
:101AB000000000000000000000000000050007001A
:101AC000010001000700000042120008D4250008B0
:101AD00040000000E80300000700000000000000D4
:101AE00000000000000000000500070001000100E8
:101AF0000700000049120008082600084100000005
:101B0000E8030000070000000000000000000000E3
:101B100000000000050007000100010007000000B0
:101B2000501200083826000842000000E8030000B8
:101B3000070000000000000000000000000000009E
:101B4000050007000100010007000000571200080F
:101B50006826000843000000E803000007000000BA
:101B60000000000000000000000000000500070069
:101B700001000100070000005E120008982600081E
:101B800044000000E803000007000000000000001F
:101B90000000000000000000050007000100010037
:101BA0000700000065120008C82600084500000074
:101BB000E803000007000000000000000000000033
:101BC0000000000005000700010001000700000000
:101BD0006C120008F826000846000000E803000028
:101BE00007000000000000000000000000000000EE
:101BF0000500070001000100070000007312000843
:101C00002827000847000000E80300000700000044
:101C100000000000000000000000000005000700B8
:101C200001000100070000007A1200085827000890
:101C300048000000E803000007000000000000006A
:101C40000000000000000000050007000100010086
:101C500007000000811200089427000849000000D6
:101C6000E803000007000000000000000000000082
:101C70000000000003000700020001000700000050
:101C800088120008C42700084A000000E80300008A
:101C9000070000000000000000000000000000003D
:101CA0000500070001000100070000008F12000876
:101CB000F42700084B000000E803000007000000C4
:101CC0000000000000000000000000000500070008
:101CD00001000100070000009612000824280008F7
:101CE0004C000000E80300000700000000000000B6
:101CF00000000000000000000500070001000100D6
:101D0000070000009D120008542800084D00000044
:101D1000E8030000070000000000000000000000D1
:101D2000000000000500070001000100070000009E
:101D3000A4120008842800084E000000E8030000F8
:101D4000070000000000000000000000000000008C
:101D5000050007000100010007000000AB120008A9
:101D6000B42800084F000000E8030000070000004E
:101D70000000000000000000000000000500070057
:101D80000100010007000000B2120008DC25000875
:101D900050000000E8030000070000000000000001
:101DA0000000000000000000050007000100010025
:101DB00007000000B91200081026000851000000BA
:101DC000E803000007000000000000000000000021
:101DD00000000000050007000100010007000000EE
:101DE000C01200084026000852000000E80300006E
:101DF00007000000000000000000000000000000DC
:101E0000050007000100010007000000C7120008DC
:101E10007026000853000000E803000007000000DF
:101E200000000000000000000000000005000700A6
:101E30000100010007000000CE120008A0260008E3
:101E400054000000E803000007000000000000004C
:101E50000000000000000000050007000100010074
:101E600007000000D5120008D02600085500000029
:101E7000E803000007000000000000000000000070
:101E8000000000000500070001000100070000003D
:101E9000DC1200080027000856000000E8030000DC
:101EA000070000000000000000000000000000002B
:101EB000050007000100010007000000E312000810
:101EC0003027000857000000E8030000070000006A
:101ED00000000000000000000000000005000700F6
:101EE0000100010007000000EA1200086027000856
:101EF00058000000E8030000070000000000000098
:101F000000000000000000000500070001000100C3
:101F100007000000F11200089C270008590000008B
:101F2000E8030000070000000000000000000000BF
:101F3000000000000500070001000100070000008C
:101F4000F8120008CC2700085A000000E80300003F
:101F5000070000000000000000000000000000007A
:101F6000050007000100010007000000FF12000843
:101F7000FC2700085B000000E803000007000000E9
:101F80000000000000000000000000000300070047
:101F90000200010007000000061300082C280008BA
:101FA0005C000000E80300000700000000000000E3
:101FB0000000000000000000050005000100020014
:101FC000050000000D1300085C2800085D000000FB
:101FD000E80300000700000000000000000000000F
:101FE00000000000030007000200010007000000DD
:101FF000121300088C2800085E000000E8030000AF
:1020000007000000000000000000000000000000C9
:10201000050003000100050003000000191300087B
:10202000BC2800085F000000E80300000700000073
:10203000000000000000000000000000050001009A
:1020400001000100010000001C130008E425000845
:1020500060000000E803000007000000000000002E
:102060000000000000000000030003000200050063
:10207000030000001D13000818260008610000007E
:10208000E80300000700000000000000000000005E
:10209000000000000500050001000100050000002F
:1020A000201300084826000862000000E803000032
:1020B0000700000000000000000000000000000019
:1020C00005000700010001000700000025130008BB
:1020D0007826000863000000E80300000700000005
:1020E00000000000000000000000000005000500E6
:1020F00001000100050000002C130008A8260008BC
:1021000064000000E8030000070000000000000079
:1021100000000000000000000500070001000100B1
:102120000700000031130008D826000865000000F1
:10213000E8030000070000000000000000000000AD
:10214000000000000500050001000100050000007E
:10215000381300080827000866000000E8030000A4
:102160000700000000000000000000000000000068
:102170000500070001000100070000003D130008F2
:102180003827000867000000E8030000070000008F
:102190000000000000000000000000000500050035
:1021A0000100010005000000441300086827000832
:1021B00068000000E80300000700000000000000C5
:1021C0000000000000000000050007000100010001
:1021D0000700000049130008A42700086900000058
:1021E000E8030000070000000000000000000000FD
:1021F00000000000030007000200010007000000CB
:1022000050130008D42700086A000000E80300000B
:1022100007000000000000000000000000000000B7
:102220000400070001000100070000005713000828
:10223000042800086B000000E8030000070000000D
:102240000000000000000000000000000400070083
:1022500002000100070000005E1300083428000897
:102260006C000000E8030000070000000000000010
:102270000000000000000000030007000200010051
:102280000700000065130008642800086D000000C6
:10229000E80300000700000000000000000000004C
:1022A000000000000500050001000100050000001D
:1022B0006C130008942800086E000000E80300007A
:1022C0000700000000000000000000000000000007
:1022D0000500050001000100050000007113000861
:1022E000C42800086F000000E80300000700000099
:1022F00000000000000000000000000005000500D4
:10230000010001000500000076130008EC2500081C
:1023100070000000E803000007000000000000005B
:1023200000000000000000000500050001000100A1
:10233000050000007B130008202600087100000043
:10234000E80300000700000000000000000000009B
:10235000000000000500060001000100060000006A
:10236000801300085026000872000000E8030000F7
:102370000700000000000000000000000000000056
:10238000050005000100010005000000861300089B
:102390008026000873000000E8030000070000002A
:1023A0000000000000000000000000000500050023
:1023B00001000100050000008B130008B026000892
:1023C00074000000E80300000700000000000000A7
:1023D00000000000000000000500070001000100EF
:1023E0000700000090130008E026000875000000B8
:1023F000E8030000070000000000000000000000EB
:1024000000000000050006000100010006000000B9
:10241000971300081027000876000000E80300006A
:1024200007000000000000000000000000000000A5
:102430000500050001000100050000009D130008D3
:102440004027000877000000E803000007000000B4
:102450000000000000000000000000000500050072
:102460000100010005000000A21300087027000809
:1024700078000000E80300000700000000000000F2
:102480000000000000000000050005000100010040
:1024900005000000A7130008AC2700087900000021
:1024A000E80300000700000000000000000000003A
:1024B000000000000500050001000100050000000B
:1024C000AC130008DC2700087A000000E8030000D5
:1024D00007000000000000000000000000000000F5
:1024E000050005000100010005000000B11300080F
:1024F0000C2800087B000000E80300000700000033
:1025000000000000000000000000000003000700C1
:102510000200010007000000B61300083C28000874
:102520007C000000E803000007000000000000003D
:10253000000000000000000001000700030001008F
:1025400007000000BD1300086C2800087D00000093
:10255000E803000007000000000000000000000089
:102560000000000003000700020001000700000057
:10257000C41300089C2800087E000000E803000047
:102580000700000000000000000000000000000044
:10259000050003000100050003000000CB13000844
:1025A000F425000878270008000000000800480013
:1025B000480007000800000000005F00D01300087A
:1025C0004C1500083030323000000000303033301D
:1025D0000000000030303430000000003030353072
:1025E000000000003030363000000000303037305E
:1025F00000000000322E3100303032310000000087
:102600003030333100000000303034310000000041
:10261000303035310000000030303631000000002D
:10262000303037310000000030303232000000001E
:10263000303033320000000030303432000000000F
:1026400030303532000000003030363200000000FB
:1026500030303732000000003030323300000000EC
:1026600030303333000000003030343300000000DD
:1026700030303533000000003030363300000000C9
:1026800030303733000000003030323400000000BA
:1026900030303334000000003030343400000000AB
:1026A0003030353400000000303036340000000097
:1026B0003030373400000000303032350000000088
:1026C0003030333500000000303034350000000079
:1026D0003030353500000000303036350000000065
:1026E0003030373500000000303032360000000056
:1026F0003030333600000000303034360000000047
:102700003030353600000000303036360000000032
:102710003030373600000000303032370000000023
:102720003030333700000000303034370000000014
:102730003030353700000000303036370000000000
:1027400030303737000000003030323800000000F1
:1027500030303338000000003030343800000000E2
:1027600030303538000000003030363800000000CE
:1027700030303738000000004D61747269782035C0
:102780007838000030303239000000003030333902
:10279000000000003030343900000000303035399E
:1027A000000000003030363900000000303037398A
:1027B0000000000030303241000000003030334172
:1027C000000000003030344100000000303035415E
:1027D000000000003030364100000000303037414A
:1027E0000000000030303242000000003030334240
:1027F000000000003030344200000000303035422C
:102800000000000030303642000000003030374217
:10281000000000003030324300000000303033430D
:1028200000000000303034430000000030303543F9
:1028300000000000303036430000000030303743E5
:1028400000000000303032440000000030303344DB
:1028500000000000303034440000000030303544C7
:1028600000000000303036440000000030303744B3
:1028700000000000303032450000000030303345A9
:102880000000000030303445000000003030354595
:102890000000000030303645000000003030374581
:1028A0000000000030303246000000003030334677
:1028B0000000000030303446000000003030354663
:1028C000000000003030364600000000EC28000810
:1028D000000000201404000034050008D42A000879
:1028E000140400203C200000B00F00080252FF0139
:1028F000C2CF109006FE03FFFEE1107008F821FF22
:10290000F800FFC1106009F0F8FFF00C7F807F2015
:102910007009F3FC7FF31E7E1C3F107008FE3FF32E
:10292000FC7C7F1F108008FF1800007CFF9F107048
:102930000680000018FF207008F1FFC3FFFF03FFAF
:10294000407008F8FFEFFFFFE3FE1012FC73700405
:1029500001FFFC70110A800500001FFCB080077F9A
:10296000FC0FFE07F9D080073FF0FFFFE1F11012E6
:102970001FCEA2F0108006C7C3FFFC794074073F4A
:102980008F007FFE7C008008FC7F9C3C3E003C70FA
:102990009007FF38FF1C001EA0700631FF88FF8FD4
:1029A000F01404F1FE631E82CFF07007FC67FEC3D3
:1029B000F9C7F07408E3FCCFF827F0670013E7F9D4
:1029C0001077E06376B005CFF9CFF01022F32072D4
:1029D0006110228F106004F0E1C72070099FF3CFCF
:1029E000FFE7FFE1E71013F7E71072C01014041FB0
:1029F000E7E35272CC2014043FE7F15F928C109011
:102A000006F87E007F1C107007FE00000030F330D7
:102A10009007E01F81FF00C01090050FE3FF8F10AB
:102A20009008F007E7FFC780E3108005C3FFE3804D
:102A3000508007F007C000038190D110B0079FF8C5
:102A400007E3C7E7108005F0FFC7C1F08407FC0F5C
:102A5000F81F0FE3206408FC1FFE001FE38F201AFD
:102A6000C71B8404C0FFE76023FF071699701AC0D4
:102A70009C9A8E507806F801FFFE1E402AF8409579
:102A8000E08808FE1FFFFE0001F0204207567D206F
:102A90000339FB8E8711038C07E0007FFFFC0F409A
:102AA0000316C63F72007F11C119E17203AF4AFFDE
:102AB000FA9D650339FA75CF2004FFFE3C608A67F2
:102AC000D02678768A339039AB32319B02110001DF
:042AD0000000000002
:04000005080000ED02
:00000001FF
